:100000001FC039C038C037C036C035C034C033C057
:1000100032C0E3C130C02FC02EC02DC02CC02BC0B9
:100020002AC029C028C00AC194C093C002C1FCC024
:10003000F6C0F0C0EAC0E4C0DEC0D8C0D2C0CCC0B8
:1000400011241FBECFE5D4E0DEBFCDBF10E0A0E697
:10005000B0E0E0E2FFE002C005900D92AC36B107DF
:10006000D9F720E0ACE6B0E001C01D92A238B2079B
:10007000E1F781D653C7C4CF4F925F926F927F92C0
:10008000AF92BF92CF92DF92EF92FF920F931F93A6
:10009000CF93DF9300D01F92CDB7DEB710926600EA
:1000A0001092670080916E0081116CC081E0809396
:1000B000690080916F00909170008F3F2FE7920749
:1000C00009F46CC019821A821B82883E23E09207D1
:1000D0000CF07BC08D392FEF920734F48DE99FEF40
:1000E0009093700080936F004AE0BE016F5F7F4F76
:1000F000E2D680916F009091700097FDA4C012E04D
:10010000B0E0F3E0E0E041E050E023E0A2E031E0E5
:10011000BC01675F7F4F6331710538F0843691050C
:100120000CF49BC04F2F5E2F322F21E088E0D82E99
:100130009FE6E92E6FE7F62E07E01DE7BDE6A6E68F
:100140007FE46BE5E6E0CE2EFFE3BF2E80E4A82E31
:1001500007C0FC01E859FF4FD0822F5F321718F11A
:10016000822F90E0FE01E80FF91FE0814E2E512C06
:10017000F201BD97841B950BED30F10550F7ED5E54
:10018000FF4F099488E08093690080916F009091FF
:1001900070008F3F2FE7920709F094CF80E480939F
:1001A0006700809368000F900F900F90DF91CF91C0
:1001B0001F910F91FF90EF90DF90CF90BF90AF9085
:1001C0007F906F905F904F90089587EE93E09093AB
:1001D000700080936F0088CFFC01E859FF4FE082E8
:1001E000BCCFFC01E859FF4FF082B7CFFC01E859C2
:1001F000FF4F0083B2CFFC01E859FF4F1083ADCF12
:10020000FC01E859FF4FB083A8CFFC01E859FF4F2C
:10021000A083A3CFFC01E859FF4F70839ECFFC0160
:10022000E859FF4F608399CFFC01E859FF4FC08226
:1002300094CFFC01E859FF4FB0828FCFFC01E85901
:10024000FF4FA0828ACF13E0B0E0F4E0E0E042E0AC
:1002500050E024E0A3E032E05BCF412F5B2F3A2F48
:1002600064CF80916C0090916D00019690936D0029
:1002700080936C00809171008F5F809371009091EA
:100280006000891709F44BC0883009F00895109276
:10029000710080916A008F5F80936A00853018F149
:1002A00080916C0090916D0089379E41CCF0109246
:1002B0006D0010926C00E0916E00EF5FE23008F488
:1002C00088C010926E00E0E0F0E0EE0FFF1FEF59E3
:1002D000FF4F808191819093700080936F00CCDEFE
:1002E00081E080936A0085B3886185BB979AC09A44
:1002F000E0916A00E23009F468C0D0F0E33009F41C
:1003000060C0E43019F4C098E0916A00F0E0EB5965
:10031000FF4F8081811112C010926000089588B350
:10032000817C88BB85B3887F85BB80917100ACCF11
:10033000E13061F7AC98E0916A00E8CF98B3782F8C
:10034000717081FB662760F982FB552750F983FBAA
:10035000442740F984FB332730F9272F220F922BB3
:10036000262F220F220F922B252F220F220F220F32
:10037000922B242F2295207F922B232F2295220F20
:10038000207E922B98BB95B386FB222720F9E82F7D
:10039000EE1FEE27EE1F85FB882780F9982BFE2F96
:1003A000FF0FFF0F9F2BF22FFF0F9F2B95BB7E0F91
:1003B000670F560F450F340F230F820F8093600095
:1003C00008959798E0916A00A1CFAB98E0916A00F8
:1003D0009DCFE0936E00F0E078CF1F920F920FB6A2
:1003E0000F9211242F933F934F935F936F937F93BB
:1003F0008F939F93AF93BF93EF93FF9380916C0084
:1004000090916D00019690936D0080936C008091A7
:1004100071008F5F8093710090916000891709F4DB
:100420005BC0883089F0FF91EF91BF91AF919F91B0
:100430008F917F916F915F914F913F912F910F908D
:100440000FBE0F901F9018951092710080916A0056
:100450008F5F80936A00853018F180916C009091D5
:100460006D0089379E41CCF010926D0010926C00A7
:10047000E0916E00EF5FE23008F488C010926E00E9
:10048000E0E0F0E0EE0FFF1FEF59FF4F8081918118
:100490009093700080936F00EFDD81E080936A009D
:1004A00085B3886185BB979AC09AE0916A00E23073
:1004B00009F468C0D0F0E33009F460C0E43019F406
:1004C000C098E0916A00F0E0EB59FF4F8081811104
:1004D00012C010926000A7CF88B3817C88BB85B31F
:1004E000887F85BB809171009CCFE13061F7AC982B
:1004F000E0916A00E8CF98B3782F717081FB66278E
:1005000060F982FB552750F983FB442740F984FBAF
:10051000332730F9272F220F922B262F220F220F5D
:10052000922B252F220F220F220F922B242F229560
:10053000207F922B232F2295220F207E922B98BB77
:1005400095B386FB222720F9E82FEE1FEE27EE1F3A
:1005500085FB882780F9982BFE2FFF0FFF0F9F2B1D
:10056000F22FFF0F9F2B95BB7E0F670F560F450F86
:10057000340F230F820F8093600055CF9798E0913E
:100580006A00A1CFAB98E0916A009DCFE0936E0026
:10059000F0E078CF0F931F93CF93DF93C82F81E0C4
:1005A00096D0D0E08E01000F111F000F111F000F19
:1005B000111F0E581F4F61E0C801C7D261E084E4EB
:1005C00054D281E066D08823E1F381E080D061E0FD
:1005D000C801BBD261E08EEB48D281E05CD2182F1B
:1005E00081E059D2F894CC0FDD1FCF59DF4F212F76
:1005F000382F37FD0AC0359527953983288378949D
:10060000DF91CF911F910F9108952F5F3F4FF3CF4F
:1006100091B3282F2095922391BB92B3892B82BB53
:100620008FEB93E00197F1F700C0000008954FB7FA
:10063000F89491B3982B91BB22B3382F3095232394
:1006400022BB90E19A95F1F791B3932391BB92B3BA
:10065000892B82BB8AEA8A95F1F700C04FBF0895C3
:100660004FB7F89491B3982B91BB22B3382F3095A4
:10067000232322BB90EA9A95F1F791B3932391BB80
:1006800092B3892B82BB8AE18A95F1F700C04FBFF4
:1006900008954FB7F89491B3982B91BB22B3382F9C
:1006A0003095232322BB20E12A95F1F791B39323C0
:1006B00091BB92B3982B92BB98E19A95F1F790B3C6
:1006C00022E92A95F1F700C04FBF892308954FB75B
:1006D000F89491B3982B91BB22B3382F30952323F4
:1006E00022BBEFEBF3E03197F1F700C0000091B3CC
:1006F000932391BB92B3982B92BBFAEBFA95F1F747
:1007000000C090B3E3E3F3E03197F1F700C00000DD
:100710004FBF909589230895482F4627962F969589
:1007200028E162276695606840FD962F8695592FCF
:100730005827392F369548E194279695906850FDB3
:10074000392F8695532F5827232F269548E1342794
:100750003695306850FD232F8695522F5827922FBB
:10076000969548E124272695206850FD922F86957E
:10077000592F5827392F369548E194279695906838
:1007800050FD392F8695532F5827232F269548E162
:1007900034273695306850FD232F8695422F482701
:1007A000922F969538E123272695206840FD922FB9
:1007B0008695392F3170492F469528E192279695D5
:1007C0009068381302C0842F0895892F0895982FB8
:1007D0009627AB015695479522E0622720E47227C1
:1007E00076956795706890FFBA01982F9695892F36
:1007F0008627AB015695479522E0622720E47227B1
:1008000076956795706880FDAB019695892F842752
:100810009A013695279562E0462760E4562756955B
:100820004795506880FD9A019695892F8227B901D6
:100830007695679542E0242740E43427369527953E
:10084000306880FDB9019695892F8627AB015695B2
:10085000479522E0622720E47227769567957068B5
:1008600080FDAB019695392F3427BA0176956795AF
:1008700082E0482780E4582756954795506830FD18
:1008800024C09B01492F4695942F9227B901769554
:10089000679582E0282780E43827369527953068C9
:1008A00090FD17C0CB014695582F5170BC0176952D
:1008B000679522E0822720E49227969587959C01F0
:1008C0003068541304C0CB0108959A01DBCFC901ED
:1008D0000895C901E8CFDC01AC01495F5F4FFC011D
:1008E00090E088E16081362F3927292F26959827B7
:1008F0009695906830FF922F6695792F7627392F3D
:10090000369598279695906870FD392F6695732FC8
:100910007627232F269538273695306870FD232FAC
:100920006695722F7627922F969528272695206810
:1009300070FD922F6695792F7627392F3695982757
:100940009695906870FD392F6695732F7627232F23
:10095000269538273695306870FD232F362F36952B
:10096000622F6327922F969528272695206860FD91
:10097000922F3695692F6170292F26959827969585
:1009800090686313292F922F3196E417F50709F029
:10099000A9CF81E017969C919213089580E0089565
:1009A000DC01AC01485F5F4FFC0190E088E16081B1
:1009B000362F3927292F269598279695906830FF4E
:1009C000922F6695792F7627392F36959827969509
:1009D000906870FD392F6695732F7627232F269503
:1009E00038273695306870FD232F6695722F76274D
:1009F000922F969528272695206870FD922F669550
:100A0000792F7627392F369598279695906870FD1F
:100A1000392F6695732F7627232F269538273695FD
:100A2000306870FD232F362F3695622F6327922F63
:100A3000969528272695206860FD922F3695692F78
:100A40006170292F26959827969590686313292F12
:100A5000922F3196E417F50709F0A9CF81E0189697
:100A60009C919213089580E008951F93CF93DF9394
:100A7000D82F162FC8E004C0DADDD695C15039F062
:100A8000812FD0FDF9CFECDDD695C150C9F7DF91AC
:100A9000CF911F9108951F93CF93DF93182FD8E024
:100AA000C0E0C695812FF5DD8111C068D150C9F72E
:100AB0008C2FDF91CF911F9108951F93CF93DF93D8
:100AC000182FD8E0CCEC04C0B2DDC695D15039F077
:100AD000812FC0FDF9CFC4DDC695D150C9F7DF9194
:100AE000CF911F910895CF92DF92EF92FF921F93C3
:100AF000CF93DF936C01162FD8E0C3E304C097DDDA
:100B0000C695D15039F0812FC0FDF9CFA9DDC6952A
:100B1000D150C9F7760188E0C80ED11CD8E0C0E0FA
:100B2000C695812FB6DD8111C068D150C9F7F70194
:100B3000C1937F01EC15FD0589F7DF91CF911F91DE
:100B4000FF90EF90DF90CF900895CF92DF92EF92D9
:100B5000FF921F93CF93DF936C01162FD8E0C5E56A
:100B600004C065DDC695D15039F0812FC0FDF9CFA5
:100B700077DDC695D150C9F7760188E0C80ED11C43
:100B8000F701D1917F01C8E004C051DDD695C15075
:100B900039F0812FD0FDF9CF63DDD695C150C9F76B
:100BA000EC14FD0469F7DF91CF911F91FF90EF9056
:100BB000DF90CF900895CF92DF92EF92FF920F9344
:100BC0001F93CF93DF938C01D62EF42ED8E0C0EF85
:100BD00004C02DDDC695D15039F08F2DC0FDF9CF61
:100BE0003FDDC695D150C9F7C1E0C12CD1E012C09C
:100BF000811136C0F80190819C2B90839C2301F1D8
:100C00008F2D15DDDF5FCC0F19F40F5F1F4FC1E093
:100C1000D13481F18F2D3DDDE82E8F2D3ADDE110AD
:100C2000E7CF811110C0DD1529F3F8019081DD16A1
:100C300088F48C2F809598239083CD2E9C2301F7E8
:100C40008F2D0EDDDFCFF80190812C2F2095922380
:100C50009083D4CF9C23A1F6CD2E8F2D01DDD2CF52
:100C60008FEFDF91CF911F910F91FF90EF90DF9069
:100C7000CF9008958C2DF5CFAF92BF92CF92DF9297
:100C8000EF92FF920F931F93CF93DF937C01B42ECB
:100C900069016623B9F0FC01379690E0DF011797F0
:100CA0001C9211961C9211961C9211961C921196F0
:100CB0001C9211961C9211961C9210829F5F38967E
:100CC0009613ECCFDE2DCF2DF70110E000E088E089
:100CD000A82E13C04B2D602F8D2F9C2F6CDF082F5B
:100CE0001F5F970188E0189F200D311D1124ED2F03
:100CF000FC2F0023C9F0D22FC32FAD2FBC2F8A2D7C
:100D000001900D928A95E1F78B2DE1DC8111E2CF04
:100D10008FEFDF91CF911F910F91FF90EF90DF90B8
:100D2000CF90BF90AF900895112391F0C0E00AC01A
:100D3000F60180818F5F8083CF5FF8E0EF0EF11CBA
:100D4000C11731F0C701C7DD882391F381E0E1CFFE
:100D500080E0DFCFFB012F3F51F02F5F241728F4F5
:100D60009081981731F03896F8CF8FEF089520E0F2
:100D7000F5CF822F0895CF93DF931F92CDB7DEB7C3
:100D800080E28BB91AB886E880BD91E098BB8FE30A
:100D900087BB88E185BB8FE184BB80E882BB81BBD8
:100DA00022E023BF12BE1FBC1EBC1DBC1CBC17BC56
:100DB00016BC1BBC1ABC19BC18BC12BC15BC14BC9C
:100DC00013BC15BE99BF88B910BE17B816B82FEF5F
:100DD00039E688E1215030408040E1F700C0000052
:100DE000789481E015DC19823DE4E32EFF24F3942E
:100DF0000FED1FEF9E012F5F3F4F41E062E082E762
:100E000090E03ADF882349F0F0926200E0926100BE
:100E10001093640000936300EDCF8981882309F467
:100E200046C0D12C81E053DC0D2D10E0C801880FA5
:100E3000991F880F991F880F991F9C012E583F4FAB
:100E4000790161E0C90181DE61E084E40EDE81E0C8
:100E500020DC8823E1F381E03ADC61E0C70175DE44
:100E600061E08EEB02DE81E016DEF82E81E013DE1B
:100E7000F894000F111FF801EF59FF4F2F2D382F55
:100E800037FD16C0359527953183208378943FEF41
:100E900081E19AE7315080409040E1F700C00000C6
:100EA000D3948981D81608F4BDCF8111BACFFFCF72
:100EB0002F5F3F4FE7CFBB274A3031F4992322F40D
:100EC000BDE2909581959F4F01C0BB27FB0155273F
:100ED000AA27880F991FAA1FA41710F0A41B839597
:100EE0005051B9F7A05DAA3308F0A95DA19300970E
:100EF00079F7B111B1931192CB0100C0DC01FC0173
:100F0000672F71917723E1F7329704C07C916D933D
:100F100070836291AE17BF07C8F30895F894FFCFAE
:0C0F200008FF7FFF7F00FFFFFFFF0100C4
:00000001FF
